:2000000008C020802080348000001100088009C0020011C000000FAE00E14DBF108020C0D5
:2000200000E0222770800200019005122034010019F410E000E400C0010009900030110428
:2000400041E001C002C0500B0090400001E048C000E010E032000091200020A0409080889D
:2000600013E000900890809000004000401008950992020204920590010003900290849024
:20008000928300912200908120002091000030812100008021193100009320001093220081
:2000A00020912000309320003691089113010E110010032C03101000100000623160040090
:2000C000410120147067000000074165000400200160023605300060020089B7826089BF68
:2000E00012BE789417B886B1826886B90895382F8630C0F4662361F427B381E090E002C03C
:20010000880F991F3A95E2F78095822387BB089527B381E090E002C0880F991F3A95E2F7EB
:20012000282B27BB0895382F863010F5823040F4882319F48FB58F7702C08FB58F7D8FBD85
:20014000662361F428B381E090E002C0880F991F3A95E2F78095822388BB089528B381E086
:2001600090E002C0880F991F3A95E2F7282B28BB0895ADDF78DF68DFFECFF894FFCF010031
:00000001FF
