:2000000009C021C020C034C01EC01DC01CC01BC01AC019C011241FBECFE9CDBF10E0A0E671
:20002000B0E0EEE7F1E002C005900D92A236B107D9F710E0A2E6B0E001C01D92A636B10728
:20004000E1F797D09AC0DCCF8091600061E06BD088EE93E032D08091600060E064D088EE29
:2000600093E02BD008958091600061E040D008951F920F920FB60F9211248F939F93AF9393
:20008000BF938091620090916300A0916400B09165000196A11DB11D8093620090936300BE
:2000A000A0936400B0936500BF91AF919F918F910F900FBE0F901F9018952CE231E004C0D7
:2000C000F9013197F1F701970097D1F7089583B7816083BF8FB583608FBD89B7826089BFA8
:2000E00012BE789417B886B1826886B90895382F8630C0F4662361F427B381E090E002C03C
:20010000880F991F3A95E2F78095822387BB089527B381E090E002C0880F991F3A95E2F7EB
:20012000282B27BB0895382F863010F5823040F4882319F48FB58F7702C08FB58F7D8FBD85
:20014000662361F428B381E090E002C0880F991F3A95E2F78095822388BB089528B381E086
:2001600090E002C0880F991F3A95E2F7282B28BB0895ADDF78DF68DFFECFF894FFCF010031
:00000001FF
